{
  "_format": "hh-sol-artifact-1",
  "contractName": "ArbiSearcherRouter",
  "sourceName": "contracts/ArbiSearcherRouter.sol",
  "abi": [
    {
      "inputs": [
        {
          "internalType": "address",
          "name": "_owner",
          "type": "address"
        }
      ],
      "stateMutability": "nonpayable",
      "type": "constructor"
    },
    {
      "inputs": [
        {
          "internalType": "bytes",
          "name": "data",
          "type": "bytes"
        }
      ],
      "name": "CallFailed",
      "type": "error"
    },
    {
      "inputs": [],
      "name": "MinProfit",
      "type": "error"
    },
    {
      "inputs": [],
      "name": "NotOwner",
      "type": "error"
    },
    {
      "inputs": [
        {
          "internalType": "address",
          "name": "token",
          "type": "address"
        },
        {
          "internalType": "address",
          "name": "spender",
          "type": "address"
        },
        {
          "internalType": "uint256",
          "name": "amount",
          "type": "uint256"
        }
      ],
      "name": "approveToken",
      "outputs": [],
      "stateMutability": "nonpayable",
      "type": "function"
    },
    {
      "inputs": [
        {
          "internalType": "address",
          "name": "profitToken",
          "type": "address"
        },
        {
          "internalType": "uint256",
          "name": "minProfit",
          "type": "uint256"
        },
        {
          "components": [
            {
              "internalType": "address",
              "name": "target",
              "type": "address"
            },
            {
              "internalType": "bytes",
              "name": "data",
              "type": "bytes"
            },
            {
              "internalType": "uint256",
              "name": "value",
              "type": "uint256"
            }
          ],
          "internalType": "struct ArbiSearcherRouter.Step[]",
          "name": "steps",
          "type": "tuple[]"
        }
      ],
      "name": "exec",
      "outputs": [],
      "stateMutability": "nonpayable",
      "type": "function"
    },
    {
      "inputs": [],
      "name": "owner",
      "outputs": [
        {
          "internalType": "address",
          "name": "",
          "type": "address"
        }
      ],
      "stateMutability": "view",
      "type": "function"
    },
    {
      "inputs": [
        {
          "internalType": "address",
          "name": "token",
          "type": "address"
        },
        {
          "internalType": "uint256",
          "name": "amount",
          "type": "uint256"
        }
      ],
      "name": "rescue",
      "outputs": [],
      "stateMutability": "nonpayable",
      "type": "function"
    },
    {
      "stateMutability": "payable",
      "type": "receive"
    }
  ],
  "bytecode": "0x60a060405234801561001057600080fd5b5060405161093a38038061093a83398101604081905261002f91610040565b6001600160a01b0316608052610070565b60006020828403121561005257600080fd5b81516001600160a01b038116811461006957600080fd5b9392505050565b60805161088d6100ad6000396000818160830152818161010c01528181610161015281816101ed015281816102af015261053e015261088d6000f3fe6080604052600436106100435760003560e01c80637a4e4ecf1461004f5780638da5cb5b14610071578063da3e3397146100c1578063f6755ce2146100e157600080fd5b3661004a57005b600080fd5b34801561005b57600080fd5b5061006f61006a3660046105e0565b610101565b005b34801561007d57600080fd5b506100a57f000000000000000000000000000000000000000000000000000000000000000081565b6040516001600160a01b03909116815260200160405180910390f35b3480156100cd57600080fd5b5061006f6100dc36600461060a565b6101e2565b3480156100ed57600080fd5b5061006f6100fc366004610646565b6102a4565b336001600160a01b037f0000000000000000000000000000000000000000000000000000000000000000161461014a576040516330cd747160e01b815260040160405180910390fd5b60405163a9059cbb60e01b81526001600160a01b037f0000000000000000000000000000000000000000000000000000000000000000811660048301526024820183905283169063a9059cbb906044016020604051808303816000875af11580156101b9573d6000803e3d6000fd5b505050506040513d601f19601f820116820180604052508101906101dd91906106d0565b505050565b336001600160a01b037f0000000000000000000000000000000000000000000000000000000000000000161461022b576040516330cd747160e01b815260040160405180910390fd5b60405163095ea7b360e01b81526001600160a01b0383811660048301526024820183905284169063095ea7b3906044016020604051808303816000875af115801561027a573d6000803e3d6000fd5b505050506040513d601f19601f8201168201806040525081019061029e91906106d0565b50505050565b336001600160a01b037f000000000000000000000000000000000000000000000000000000000000000016146102ed576040516330cd747160e01b815260040160405180910390fd5b6040516370a0823160e01b81523060048201526000906001600160a01b038616906370a0823190602401602060405180830381865afa158015610334573d6000803e3d6000fd5b505050506040513d601f19601f8201168201806040525081019061035891906106f9565b905060005b828110156104905760008085858481811061037a5761037a610712565b905060200281019061038c9190610728565b61039a906020810190610748565b6001600160a01b03168686858181106103b5576103b5610712565b90506020028101906103c79190610728565b604001358787868181106103dd576103dd610712565b90506020028101906103ef9190610728565b6103fd906020810190610763565b60405161040b9291906107b1565b60006040518083038185875af1925050503d8060008114610448576040519150601f19603f3d011682016040523d82523d6000602084013e61044d565b606091505b50915091508161047b578060405163a5fa8d2b60e01b815260040161047291906107c1565b60405180910390fd5b5050808061048890610825565b91505061035d565b506040516370a0823160e01b81523060048201526000906001600160a01b038716906370a0823190602401602060405180830381865afa1580156104d8573d6000803e3d6000fd5b505050506040513d601f19601f820116820180604052508101906104fc91906106f9565b9050610508858361083e565b8110156105275760405162fe5ab160e61b815260040160405180910390fd5b60405163a9059cbb60e01b81526001600160a01b037f000000000000000000000000000000000000000000000000000000000000000081166004830152838303602483015287169063a9059cbb906044016020604051808303816000875af1158015610597573d6000803e3d6000fd5b505050506040513d601f19601f820116820180604052508101906105bb91906106d0565b50505050505050565b80356001600160a01b03811681146105db57600080fd5b919050565b600080604083850312156105f357600080fd5b6105fc836105c4565b946020939093013593505050565b60008060006060848603121561061f57600080fd5b610628846105c4565b9250610636602085016105c4565b9150604084013590509250925092565b6000806000806060858703121561065c57600080fd5b610665856105c4565b935060208501359250604085013567ffffffffffffffff8082111561068957600080fd5b818701915087601f83011261069d57600080fd5b8135818111156106ac57600080fd5b8860208260051b85010111156106c157600080fd5b95989497505060200194505050565b6000602082840312156106e257600080fd5b815180151581146106f257600080fd5b9392505050565b60006020828403121561070b57600080fd5b5051919050565b634e487b7160e01b600052603260045260246000fd5b60008235605e1983360301811261073e57600080fd5b9190910192915050565b60006020828403121561075a57600080fd5b6106f2826105c4565b6000808335601e1984360301811261077a57600080fd5b83018035915067ffffffffffffffff82111561079557600080fd5b6020019150368190038213156107aa57600080fd5b9250929050565b8183823760009101908152919050565b600060208083528351808285015260005b818110156107ee578581018301518582016040015282016107d2565b506000604082860101526040601f19601f8301168501019250505092915050565b634e487b7160e01b600052601160045260246000fd5b6000600182016108375761083761080f565b5060010190565b808201808211156108515761085161080f565b9291505056fea264697066735822122045ac6c1299b4589364d4dd3953d55ad829786036c8bd7b13e655bd95c270ee9664736f6c63430008140033",
  "linkReferences": {},
  "deployedLinkReferences": {}
}